{
  "_format": "hh-sol-artifact-1",
  "contractName": "TrustWorkProof",
  "sourceName": "contracts/TrustWorkProof.sol",
  "abi": [
    {
      "anonymous": false,
      "inputs": [
        {
          "indexed": true,
          "internalType": "uint256",
          "name": "projectId",
          "type": "uint256"
        },
        {
          "indexed": true,
          "internalType": "uint256",
          "name": "deliverableId",
          "type": "uint256"
        },
        {
          "indexed": false,
          "internalType": "bool",
          "name": "approved",
          "type": "bool"
        },
        {
          "indexed": false,
          "internalType": "bytes32",
          "name": "commentHash",
          "type": "bytes32"
        },
        {
          "indexed": false,
          "internalType": "address",
          "name": "submitter",
          "type": "address"
        }
      ],
      "name": "DeliverableConfirmed",
      "type": "event"
    },
    {
      "anonymous": false,
      "inputs": [
        {
          "indexed": true,
          "internalType": "uint256",
          "name": "projectId",
          "type": "uint256"
        },
        {
          "indexed": true,
          "internalType": "uint256",
          "name": "deliverableId",
          "type": "uint256"
        },
        {
          "indexed": false,
          "internalType": "bytes32",
          "name": "fileHash",
          "type": "bytes32"
        },
        {
          "indexed": false,
          "internalType": "string",
          "name": "version",
          "type": "string"
        },
        {
          "indexed": false,
          "internalType": "bytes32",
          "name": "fileNameHash",
          "type": "bytes32"
        },
        {
          "indexed": false,
          "internalType": "address",
          "name": "submitter",
          "type": "address"
        }
      ],
      "name": "DeliverableRecorded",
      "type": "event"
    },
    {
      "anonymous": false,
      "inputs": [
        {
          "indexed": true,
          "internalType": "uint256",
          "name": "projectId",
          "type": "uint256"
        },
        {
          "indexed": true,
          "internalType": "address",
          "name": "developerWallet",
          "type": "address"
        },
        {
          "indexed": true,
          "internalType": "address",
          "name": "clientWallet",
          "type": "address"
        }
      ],
      "name": "ProjectCreated",
      "type": "event"
    },
    {
      "anonymous": false,
      "inputs": [
        {
          "indexed": true,
          "internalType": "uint256",
          "name": "projectId",
          "type": "uint256"
        },
        {
          "indexed": true,
          "internalType": "uint256",
          "name": "worklogId",
          "type": "uint256"
        },
        {
          "indexed": false,
          "internalType": "bytes32",
          "name": "worklogHash",
          "type": "bytes32"
        },
        {
          "indexed": false,
          "internalType": "uint64",
          "name": "periodStart",
          "type": "uint64"
        },
        {
          "indexed": false,
          "internalType": "uint64",
          "name": "periodEnd",
          "type": "uint64"
        },
        {
          "indexed": false,
          "internalType": "address",
          "name": "submitter",
          "type": "address"
        }
      ],
      "name": "WorklogRecorded",
      "type": "event"
    },
    {
      "inputs": [
        {
          "internalType": "uint256",
          "name": "projectId",
          "type": "uint256"
        },
        {
          "internalType": "uint256",
          "name": "deliverableId",
          "type": "uint256"
        },
        {
          "internalType": "bool",
          "name": "approved",
          "type": "bool"
        },
        {
          "internalType": "bytes32",
          "name": "commentHash",
          "type": "bytes32"
        }
      ],
      "name": "confirmDeliverable",
      "outputs": [],
      "stateMutability": "nonpayable",
      "type": "function"
    },
    {
      "inputs": [
        {
          "internalType": "uint256",
          "name": "projectId",
          "type": "uint256"
        },
        {
          "internalType": "address",
          "name": "developerWallet",
          "type": "address"
        },
        {
          "internalType": "address",
          "name": "clientWallet",
          "type": "address"
        }
      ],
      "name": "createProject",
      "outputs": [],
      "stateMutability": "nonpayable",
      "type": "function"
    },
    {
      "inputs": [
        {
          "internalType": "uint256",
          "name": "projectId",
          "type": "uint256"
        },
        {
          "internalType": "uint256",
          "name": "recordId",
          "type": "uint256"
        }
      ],
      "name": "getEvidence",
      "outputs": [
        {
          "components": [
            {
              "internalType": "uint256",
              "name": "projectId",
              "type": "uint256"
            },
            {
              "internalType": "uint256",
              "name": "recordId",
              "type": "uint256"
            },
            {
              "internalType": "bytes32",
              "name": "contentHash",
              "type": "bytes32"
            },
            {
              "internalType": "uint64",
              "name": "timestamp",
              "type": "uint64"
            },
            {
              "internalType": "address",
              "name": "submitter",
              "type": "address"
            },
            {
              "internalType": "string",
              "name": "recordType",
              "type": "string"
            },
            {
              "internalType": "bool",
              "name": "confirmed",
              "type": "bool"
            }
          ],
          "internalType": "struct TrustWorkProof.EvidenceRecord",
          "name": "",
          "type": "tuple"
        }
      ],
      "stateMutability": "view",
      "type": "function"
    },
    {
      "inputs": [
        {
          "internalType": "uint256",
          "name": "",
          "type": "uint256"
        }
      ],
      "name": "projects",
      "outputs": [
        {
          "internalType": "uint256",
          "name": "projectId",
          "type": "uint256"
        },
        {
          "internalType": "address",
          "name": "developerWallet",
          "type": "address"
        },
        {
          "internalType": "address",
          "name": "clientWallet",
          "type": "address"
        },
        {
          "internalType": "bool",
          "name": "exists",
          "type": "bool"
        }
      ],
      "stateMutability": "view",
      "type": "function"
    },
    {
      "inputs": [
        {
          "internalType": "uint256",
          "name": "projectId",
          "type": "uint256"
        },
        {
          "internalType": "uint256",
          "name": "deliverableId",
          "type": "uint256"
        },
        {
          "internalType": "bytes32",
          "name": "fileHash",
          "type": "bytes32"
        },
        {
          "internalType": "string",
          "name": "version",
          "type": "string"
        },
        {
          "internalType": "bytes32",
          "name": "fileNameHash",
          "type": "bytes32"
        }
      ],
      "name": "recordDeliverable",
      "outputs": [],
      "stateMutability": "nonpayable",
      "type": "function"
    },
    {
      "inputs": [
        {
          "internalType": "uint256",
          "name": "projectId",
          "type": "uint256"
        },
        {
          "internalType": "uint256",
          "name": "worklogId",
          "type": "uint256"
        },
        {
          "internalType": "bytes32",
          "name": "worklogHash",
          "type": "bytes32"
        },
        {
          "internalType": "uint64",
          "name": "periodStart",
          "type": "uint64"
        },
        {
          "internalType": "uint64",
          "name": "periodEnd",
          "type": "uint64"
        }
      ],
      "name": "recordWorklog",
      "outputs": [],
      "stateMutability": "nonpayable",
      "type": "function"
    },
    {
      "inputs": [
        {
          "internalType": "uint256",
          "name": "",
          "type": "uint256"
        },
        {
          "internalType": "uint256",
          "name": "",
          "type": "uint256"
        }
      ],
      "name": "usedRecordIds",
      "outputs": [
        {
          "internalType": "bool",
          "name": "",
          "type": "bool"
        }
      ],
      "stateMutability": "view",
      "type": "function"
    }
  ],
  "bytecode": "0x608060405234801561001057600080fd5b50611f2b806100206000396000f3fe608060405234801561001057600080fd5b506004361061007d5760003560e01c80639df36b7d1161005b5780639df36b7d14610101578063d76e0c0c1461011d578063ec693ae214610139578063f1b8a98c146101555761007d565b8063107046bd146100825780634e55cffc146100b557806388b93402146100e5575b600080fd5b61009c60048036038101906100979190611114565b610185565b6040516100ac94939291906111ac565b60405180910390f35b6100cf60048036038101906100ca91906111f1565b610202565b6040516100dc9190611231565b60405180910390f35b6100ff60048036038101906100fa91906112e7565b610231565b005b61011b600480360381019061011691906113ad565b6105bb565b005b61013760048036038101906101329190611440565b610844565b005b610153600480360381019061014e91906114e7565b610c13565b005b61016f600480360381019061016a91906111f1565b610e0d565b60405161017c91906116c5565b60405180910390f35b60006020528060005260406000206000915090508060000154908060010160009054906101000a900473ffffffffffffffffffffffffffffffffffffffff16908060020160009054906101000a900473ffffffffffffffffffffffffffffffffffffffff16908060020160149054906101000a900460ff16905084565b60026020528160005260406000206020528060005260406000206000915091509054906101000a900460ff1681565b8560008082815260200190815260200160002060020160149054906101000a900460ff16610294576040517f08c379a000000000000000000000000000000000000000000000000000000000815260040161028b90611744565b60405180910390fd5b60008082815260200190815260200160002060010160009054906101000a900473ffffffffffffffffffffffffffffffffffffffff1673ffffffffffffffffffffffffffffffffffffffff163373ffffffffffffffffffffffffffffffffffffffff1614610337576040517f08c379a000000000000000000000000000000000000000000000000000000000815260040161032e906117b0565b60405180910390fd5b60026000888152602001908152602001600020600087815260200190815260200160002060009054906101000a900460ff16156103a9576040517f08c379a00000000000000000000000000000000000000000000000000000000081526004016103a09061181c565b60405180910390fd5b600160026000898152602001908152602001600020600088815260200190815260200160002060006101000a81548160ff0219169083151502179055506040518060e001604052808881526020018781526020018681526020014267ffffffffffffffff1681526020013373ffffffffffffffffffffffffffffffffffffffff16815260200185858080601f016020809104026020016040519081016040528093929190818152602001838380828437600081840152601f19601f8201169050808301925050505050505081526020016000151581525060016000898152602001908152602001600020600088815260200190815260200160002060008201518160000155602082015181600101556040820151816002015560608201518160030160006101000a81548167ffffffffffffffff021916908367ffffffffffffffff16021790555060808201518160030160086101000a81548173ffffffffffffffffffffffffffffffffffffffff021916908373ffffffffffffffffffffffffffffffffffffffff16021790555060a082015181600401908161054d9190611a77565b5060c08201518160050160006101000a81548160ff02191690831515021790555090505085877fd74a2597a77a6d272f949a43c11bb5adb0ada1a28d2ba738b29f2548e1c8628f87878787336040516105aa959493929190611b94565b60405180910390a350505050505050565b60008084815260200190815260200160002060020160149054906101000a900460ff161561061e576040517f08c379a000000000000000000000000000000000000000000000000000000000815260040161061590611c2e565b60405180910390fd5b600073ffffffffffffffffffffffffffffffffffffffff168273ffffffffffffffffffffffffffffffffffffffff16141580156106885750600073ffffffffffffffffffffffffffffffffffffffff168173ffffffffffffffffffffffffffffffffffffffff1614155b6106c7576040517f08c379a00000000000000000000000000000000000000000000000000000000081526004016106be90611c9a565b60405180910390fd5b60405180608001604052808481526020018373ffffffffffffffffffffffffffffffffffffffff1681526020018273ffffffffffffffffffffffffffffffffffffffff168152602001600115158152506000808581526020019081526020016000206000820151816000015560208201518160010160006101000a81548173ffffffffffffffffffffffffffffffffffffffff021916908373ffffffffffffffffffffffffffffffffffffffff16021790555060408201518160020160006101000a81548173ffffffffffffffffffffffffffffffffffffffff021916908373ffffffffffffffffffffffffffffffffffffffff16021790555060608201518160020160146101000a81548160ff0219169083151502179055509050508073ffffffffffffffffffffffffffffffffffffffff168273ffffffffffffffffffffffffffffffffffffffff16847f89d08535246e9977769e1f3a9c7b5cf99c9ea6c5c7362972d02f1d0598fba5e060405160405180910390a4505050565b8460008082815260200190815260200160002060020160149054906101000a900460ff166108a7576040517f08c379a000000000000000000000000000000000000000000000000000000000815260040161089e90611744565b60405180910390fd5b60008082815260200190815260200160002060010160009054906101000a900473ffffffffffffffffffffffffffffffffffffffff1673ffffffffffffffffffffffffffffffffffffffff163373ffffffffffffffffffffffffffffffffffffffff161461094a576040517f08c379a0000000000000000000000000000000000000000000000000000000008152600401610941906117b0565b60405180910390fd5b60026000878152602001908152602001600020600086815260200190815260200160002060009054906101000a900460ff16156109bc576040517f08c379a00000000000000000000000000000000000000000000000000000000081526004016109b39061181c565b60405180910390fd5b8267ffffffffffffffff168267ffffffffffffffff161015610a13576040517f08c379a0000000000000000000000000000000000000000000000000000000008152600401610a0a90611d06565b60405180910390fd5b600160026000888152602001908152602001600020600087815260200190815260200160002060006101000a81548160ff0219169083151502179055506040518060e001604052808781526020018681526020018581526020014267ffffffffffffffff1681526020013373ffffffffffffffffffffffffffffffffffffffff1681526020016040518060400160405280600781526020017f776f726b6c6f670000000000000000000000000000000000000000000000000081525081526020016001151581525060016000888152602001908152602001600020600087815260200190815260200160002060008201518160000155602082015181600101556040820151816002015560608201518160030160006101000a81548167ffffffffffffffff021916908367ffffffffffffffff16021790555060808201518160030160086101000a81548173ffffffffffffffffffffffffffffffffffffffff021916908373ffffffffffffffffffffffffffffffffffffffff16021790555060a0820151816004019081610ba89190611a77565b5060c08201518160050160006101000a81548160ff02191690831515021790555090505084867fccd6ca82c9f94b9f90acf92230f06de82aca8618c972d5704e712ce992ca147986868633604051610c039493929190611d35565b60405180910390a3505050505050565b8360008082815260200190815260200160002060020160149054906101000a900460ff16610c76576040517f08c379a0000000000000000000000000000000000000000000000000000000008152600401610c6d90611744565b60405180910390fd5b60008082815260200190815260200160002060020160009054906101000a900473ffffffffffffffffffffffffffffffffffffffff1673ffffffffffffffffffffffffffffffffffffffff163373ffffffffffffffffffffffffffffffffffffffff1614610d19576040517f08c379a0000000000000000000000000000000000000000000000000000000008152600401610d1090611dc6565b60405180910390fd5b60026000868152602001908152602001600020600085815260200190815260200160002060009054906101000a900460ff16610d8a576040517f08c379a0000000000000000000000000000000000000000000000000000000008152600401610d8190611e32565b60405180910390fd5b8260016000878152602001908152602001600020600086815260200190815260200160002060050160006101000a81548160ff02191690831515021790555083857f028a4ef4c03b70c8f318eddccdb88ba0430c3ff1ca0d0a5f3bd070872bbc9700858533604051610dfe93929190611e52565b60405180910390a35050505050565b610e15611072565b60008084815260200190815260200160002060020160149054906101000a900460ff16610e77576040517f08c379a0000000000000000000000000000000000000000000000000000000008152600401610e6e90611744565b60405180910390fd5b60026000848152602001908152602001600020600083815260200190815260200160002060009054906101000a900460ff16610ee8576040517f08c379a0000000000000000000000000000000000000000000000000000000008152600401610edf90611ed5565b60405180910390fd5b6001600084815260200190815260200160002060008381526020019081526020016000206040518060e00160405290816000820154815260200160018201548152602001600282015481526020016003820160009054906101000a900467ffffffffffffffff1667ffffffffffffffff1667ffffffffffffffff1681526020016003820160089054906101000a900473ffffffffffffffffffffffffffffffffffffffff1673ffffffffffffffffffffffffffffffffffffffff1673ffffffffffffffffffffffffffffffffffffffff168152602001600482018054610fcd9061189a565b80601f0160208091040260200160405190810160405280929190818152602001828054610ff99061189a565b80156110465780601f1061101b57610100808354040283529160200191611046565b820191906000526020600020905b81548152906001019060200180831161102957829003601f168201915b505050505081526020016005820160009054906101000a900460ff161515151581525050905092915050565b6040518060e00160405280600081526020016000815260200160008019168152602001600067ffffffffffffffff168152602001600073ffffffffffffffffffffffffffffffffffffffff168152602001606081526020016000151581525090565b600080fd5b600080fd5b6000819050919050565b6110f1816110de565b81146110fc57600080fd5b50565b60008135905061110e816110e8565b92915050565b60006020828403121561112a576111296110d4565b5b6000611138848285016110ff565b91505092915050565b61114a816110de565b82525050565b600073ffffffffffffffffffffffffffffffffffffffff82169050919050565b600061117b82611150565b9050919050565b61118b81611170565b82525050565b60008115159050919050565b6111a681611191565b82525050565b60006080820190506111c16000830187611141565b6111ce6020830186611182565b6111db6040830185611182565b6111e8606083018461119d565b95945050505050565b60008060408385031215611208576112076110d4565b5b6000611216858286016110ff565b9250506020611227858286016110ff565b9150509250929050565b6000602082019050611246600083018461119d565b92915050565b6000819050919050565b61125f8161124c565b811461126a57600080fd5b50565b60008135905061127c81611256565b92915050565b600080fd5b600080fd5b600080fd5b60008083601f8401126112a7576112a6611282565b5b8235905067ffffffffffffffff8111156112c4576112c3611287565b5b6020830191508360018202830111156112e0576112df61128c565b5b9250929050565b60008060008060008060a08789031215611304576113036110d4565b5b600061131289828a016110ff565b965050602061132389828a016110ff565b955050604061133489828a0161126d565b945050606087013567ffffffffffffffff811115611355576113546110d9565b5b61136189828a01611291565b9350935050608061137489828a0161126d565b9150509295509295509295565b61138a81611170565b811461139557600080fd5b50565b6000813590506113a781611381565b92915050565b6000806000606084860312156113c6576113c56110d4565b5b60006113d4868287016110ff565b93505060206113e586828701611398565b92505060406113f686828701611398565b9150509250925092565b600067ffffffffffffffff82169050919050565b61141d81611400565b811461142857600080fd5b50565b60008135905061143a81611414565b92915050565b600080600080600060a0868803121561145c5761145b6110d4565b5b600061146a888289016110ff565b955050602061147b888289016110ff565b945050604061148c8882890161126d565b935050606061149d8882890161142b565b92505060806114ae8882890161142b565b9150509295509295909350565b6114c481611191565b81146114cf57600080fd5b50565b6000813590506114e1816114bb565b92915050565b60008060008060808587031215611501576115006110d4565b5b600061150f878288016110ff565b9450506020611520878288016110ff565b9350506040611531878288016114d2565b92505060606115428782880161126d565b91505092959194509250565b611557816110de565b82525050565b6115668161124c565b82525050565b61157581611400565b82525050565b61158481611170565b82525050565b600081519050919050565b600082825260208201905092915050565b60005b838110156115c45780820151818401526020810190506115a9565b60008484015250505050565b6000601f19601f8301169050919050565b60006115ec8261158a565b6115f68185611595565b93506116068185602086016115a6565b61160f816115d0565b840191505092915050565b61162381611191565b82525050565b600060e083016000830151611641600086018261154e565b506020830151611654602086018261154e565b506040830151611667604086018261155d565b50606083015161167a606086018261156c565b50608083015161168d608086018261157b565b5060a083015184820360a08601526116a582826115e1565b91505060c08301516116ba60c086018261161a565b508091505092915050565b600060208201905081810360008301526116df8184611629565b905092915050565b600082825260208201905092915050565b7f50726f6a656374206e6f7420666f756e64000000000000000000000000000000600082015250565b600061172e6011836116e7565b9150611739826116f8565b602082019050919050565b6000602082019050818103600083015261175d81611721565b9050919050565b7f4f6e6c7920646576656c6f706572000000000000000000000000000000000000600082015250565b600061179a600e836116e7565b91506117a582611764565b602082019050919050565b600060208201905081810360008301526117c98161178d565b9050919050565b7f5265636f726420616c7265616479206578697374730000000000000000000000600082015250565b60006118066015836116e7565b9150611811826117d0565b602082019050919050565b60006020820190508181036000830152611835816117f9565b9050919050565b7f4e487b7100000000000000000000000000000000000000000000000000000000600052604160045260246000fd5b7f4e487b7100000000000000000000000000000000000000000000000000000000600052602260045260246000fd5b600060028204905060018216806118b257607f821691505b6020821081036118c5576118c461186b565b5b50919050565b60008190508160005260206000209050919050565b60006020601f8301049050919050565b600082821b905092915050565b60006008830261192d7fffffffffffffffffffffffffffffffffffffffffffffffffffffffffffffffff826118f0565b61193786836118f0565b95508019841693508086168417925050509392505050565b6000819050919050565b600061197461196f61196a846110de565b61194f565b6110de565b9050919050565b6000819050919050565b61198e83611959565b6119a261199a8261197b565b8484546118fd565b825550505050565b600090565b6119b76119aa565b6119c2818484611985565b505050565b5b818110156119e6576119db6000826119af565b6001810190506119c8565b5050565b601f821115611a2b576119fc816118cb565b611a05846118e0565b81016020851015611a14578190505b611a28611a20856118e0565b8301826119c7565b50505b505050565b600082821c905092915050565b6000611a4e60001984600802611a30565b1980831691505092915050565b6000611a678383611a3d565b9150826002028217905092915050565b611a808261158a565b67ffffffffffffffff811115611a9957611a9861183c565b5b611aa3825461189a565b611aae8282856119ea565b600060209050601f831160018114611ae15760008415611acf578287015190505b611ad98582611a5b565b865550611b41565b601f198416611aef866118cb565b60005b82811015611b1757848901518255600182019150602085019450602081019050611af2565b86831015611b345784890151611b30601f891682611a3d565b8355505b6001600288020188555050505b505050505050565b611b528161124c565b82525050565b82818337600083830152505050565b6000611b7383856116e7565b9350611b80838584611b58565b611b89836115d0565b840190509392505050565b6000608082019050611ba96000830188611b49565b8181036020830152611bbc818688611b67565b9050611bcb6040830185611b49565b611bd86060830184611182565b9695505050505050565b7f50726f6a65637420616c72656164792065786973747300000000000000000000600082015250565b6000611c186016836116e7565b9150611c2382611be2565b602082019050919050565b60006020820190508181036000830152611c4781611c0b565b9050919050565b7f496e76616c69642077616c6c6574000000000000000000000000000000000000600082015250565b6000611c84600e836116e7565b9150611c8f82611c4e565b602082019050919050565b60006020820190508181036000830152611cb381611c77565b9050919050565b7f496e76616c696420706572696f64000000000000000000000000000000000000600082015250565b6000611cf0600e836116e7565b9150611cfb82611cba565b602082019050919050565b60006020820190508181036000830152611d1f81611ce3565b9050919050565b611d2f81611400565b82525050565b6000608082019050611d4a6000830187611b49565b611d576020830186611d26565b611d646040830185611d26565b611d716060830184611182565b95945050505050565b7f4f6e6c7920636c69656e74000000000000000000000000000000000000000000600082015250565b6000611db0600b836116e7565b9150611dbb82611d7a565b602082019050919050565b60006020820190508181036000830152611ddf81611da3565b9050919050565b7f44656c6976657261626c65206e6f7420666f756e640000000000000000000000600082015250565b6000611e1c6015836116e7565b9150611e2782611de6565b602082019050919050565b60006020820190508181036000830152611e4b81611e0f565b9050919050565b6000606082019050611e67600083018661119d565b611e746020830185611b49565b611e816040830184611182565b949350505050565b7f5265636f7264206e6f7420666f756e6400000000000000000000000000000000600082015250565b6000611ebf6010836116e7565b9150611eca82611e89565b602082019050919050565b60006020820190508181036000830152611eee81611eb2565b905091905056fea2646970667358221220c35d40fc4bf733e7718ada27948d1ac466d300800cd1525e17a77457c95aff7d64736f6c63430008180033",
  "linkReferences": {},
  "deployedLinkReferences": {}
}